:100000000C942A000C94CC090C94F9090C94260A3F
:100010000C9447000C9447000C9447000C94470044
:100020000C9447000C9447000C94EF070C941C08A8
:100030000C9447000C9447000C9447000C94470024
:100040000C9447000C9447000C9447000C94470014
:100050000C94470011241FBECFE5D8E0DEBFCDBF12
:1000600014E0A0E6B0E0E6EBF1E302C005900D92EB
:10007000A636B107D9F714E0A6E6B4E001C01D9298
:10008000A837B107E1F70E943E140C94D9180C94DC
:100090000000EF92FF920F931F937B018C0120E0F1
:1000A00030E040E05FE40E94F50388238CF0C80153
:1000B000B70120E030E040E05FE40E94C1010E940F
:1000C00055049B01AC01205030404040504806C0D0
:1000D000C801B7010E9455049B01AC01B901CA01D6
:1000E0001F910F91FF90EF900895A0E0B0E0EBE733
:1000F000F0E00C94F415DC012B01FA019C91923094
:1001000008F439C1EB018881823008F433C194309E
:1001100069F4843009F02FC111969C91119789815F
:10012000981709F428C1AEE7B1E025C1843009F47D
:1001300021C18230A9F4923009F01DC19A01AD01AC
:1001400088E0EA010990AE01E90109929E0181501F
:10015000C1F7E201898111969C918923818308C1AD
:10016000923009F407C112962D903C901397EB0141
:100170008A819B811496AD90BD90CD90DC901797AD
:10018000EC80FD800E811F819101281B390BB90184
:1001900037FF04C066277727621B730B6032710537
:1001A0000CF061C0121613066CF537014801062EDB
:1001B00004C096948794779467940A94D2F721E0C8
:1001C00030E040E050E004C0220F331F441F551FB1
:1001D0006A95D2F721503040404050402E213F21B7
:1001E00040235123211531054105510521F021E01E
:1001F00030E040E050E079018A01E628F72808293C
:1002000019293CC0232BD1F1260E371E350146019A
:10021000062E04C096948794779467940A94D2F734
:1002200021E030E040E050E004C0220F331F441FC3
:10023000551F6A95D2F721503040404050402A2146
:100240003B214C215D21211531054105510521F04E
:1002500021E030E040E050E059016A01A628B728CB
:10026000C828D9280BC0821593052CF01C01AA249C
:10027000BB24650103C0EE24FF24870111969C91E5
:10028000D20111968C91981709F445C0992339F041
:10029000A80197012A193B094C095D0906C0A6016E
:1002A00095012E193F09400B510B57FD08C01182D3
:1002B0003382228224833583468357831DC081E0A5
:1002C00081833382228288279927DC01821B930B4A
:1002D000A40BB50B84839583A683B7830DC0220F2F
:1002E000331F441F551F24833583468357838281E0
:1002F000938101979383828324813581468157813D
:10030000DA01C9010197A109B1098F5F9F4FAF4F72
:10031000BF4328F30BC0918333822282EA0CFB1C7B
:100320000C1D1D1DE482F5820683178383E0808304
:10033000248135814681578157FF1AC0C901AA27F8
:1003400097FDA095BA2F81709070A070B0705695EF
:10035000479537952795822B932BA42BB52B848318
:100360009583A683B7838281938101969383828349
:10037000DF0101C0D201CD01CDB7DEB7E2E10C94BF
:100380001016A0E2B0E0E7ECF1E00C9400166983EF
:100390007A838B839C832D833E834F835887E9E048
:1003A000EE2EF12CEC0EFD1ECE010196B7010E943F
:1003B00046068E010F5E1F4FCE010596B8010E94C2
:1003C00046068A8991E089278A8BC701B801AE0168
:1003D000475E5F4F0E9475000E947105A096E6E09F
:1003E0000C941C16A0E2B0E0E8EFF1E00C940016CB
:1003F00069837A838B839C832D833E834F835887C5
:10040000F9E0EF2EF12CEC0EFD1ECE010196B701A6
:100410000E9446068E010F5E1F4FCE010596B80161
:100420000E944606C701B801AE01475E5F4F0E94B9
:1004300075000E947105A096E6E00C941C16A0E2DF
:10044000B0E0E5E2F2E00C94F41569837A838B83E3
:100450009C832D833E834F835887CE010196BE0136
:10046000675F7F4F0E944606CE010596BE016F5E14
:100470007F4F0E9446069985923088F089898230A4
:10048000C8F0943019F4823051F404C0843029F457
:10049000923081F48EE791E0C6C0923049F420E0BA
:1004A0009A858A89981321E02A87CE010996BBC0D4
:1004B000823049F420E09A858A89981321E02A8BBA
:1004C000CE014196B0C02D843E844F8458886D88FB
:1004D0007E888F88988CEE24FF248701AA24BB2471
:1004E000650140E050E060E070E0E0E0F0E0C10174
:1004F00081709070892BE9F0E60CF71C081D191D1E
:100500009A01AB012A0D3B1D4C1D5D1D80E090E062
:10051000A0E0B0E0E614F7040805190520F481E036
:1005200090E0A0E0B0E0BA01A901480F591F6A1F8E
:100530007B1FAA0CBB1CCC1CDD1C97FE08C081E0F5
:1005400090E0A0E0B0E0A82AB92ACA2ADB2A3196B6
:10055000E032F10549F0660C771C881C991C569412
:10056000479437942794C3CFFA85EA892B893C892D
:100570008B859C85280F391F2E5F3F4F17C0CA01FE
:1005800081709070892B61F016950795F794E79428
:1005900080E090E0A0E0B0E8E82AF92A0A2B1B2BC3
:1005A00076956795579547952F5F3F4F77FDE7CF36
:1005B0000CC0440F551F661F771F17FD4160EE0CDE
:1005C000FF1C001F111F21503040403090E05907A0
:1005D00090E0690790E4790760F32B8F3C8FDB0193
:1005E000CA018F779070A070B07080349105A1051A
:1005F000B10561F447FD0AC0E114F10401051105DC
:1006000029F0405C5F4F6F4F7F4F40781A8EFE1786
:1006100011F081E08A8F4D8F5E8F6F8F78A383E01A
:10062000898FCE0149960E947105A096E2E10C9453
:100630001016A8E1B0E0EFE1F3E00C94FC1569833B
:100640007A838B839C832D833E834F835887B9E0C5
:10065000EB2EF12CEC0EFD1ECE010196B7010E948F
:1006600046068E010F5E1F4FCE010596B8010E940F
:1006700046062985223008F47EC03989323010F4CC
:10068000B8017CC08A859A8989278A87243011F02D
:10069000223031F4231709F06EC06EE771E06EC0AE
:1006A000343039F41D861E861F86188A1C861B86E8
:1006B00004C0323021F484E08987B7015FC02B8504
:1006C0003C858B899C89281B390B3C872B87ED84C3
:1006D000FE840F851889AD88BE88CF88D88CEA142F
:1006E000FB040C051D0540F4EE0CFF1C001F111F40
:1006F000215030403C872B8720E030E040E050E044
:1007000080E090E0A0E0B0E460E070E0EA14FB0478
:100710000C051D0540F0282B392B4A2B5B2BEA18C2
:10072000FB080C091D09B695A79597958795EE0CC2
:10073000FF1C001F111F6F5F7F4F6F31710531F775
:10074000DA01C9018F779070A070B0708034910584
:10075000A105B10561F427FD0AC0E114F10401050A
:10076000110529F0205C3F4F4F4F5F4F20782D87B8
:100770003E874F87588BBE01675F7F4FCB010E943A
:1007800071056896EAE00C941816A8E1B0E0EBEC6D
:10079000F3E00C94001669837A838B839C832D830A
:1007A0003E834F83588789E0E82EF12CEC0EFD1E26
:1007B000CE010196B7010E9446068E010F5E1F4FC3
:1007C000CE010596B8010E9446068985823040F028
:1007D0008989823028F0C701B8010E94BE0601C095
:1007E0008FEF6896E6E00C941C16A8E1B0E0EBEF02
:1007F000F3E00C94001669837A838B839C832D83AA
:100800003E834F83588789E0E82EF12CEC0EFD1EC5
:10081000CE010196B7010E9446068E010F5E1F4F62
:10082000CE010596B8010E9446068985823040F0C7
:100830008989823028F0C701B8010E94BE0601C034
:100840008FEF6896E6E00C941C16A8E1B0E0EBE2AE
:10085000F4E00C94001669837A838B839C832D8348
:100860003E834F83588789E0E82EF12CEC0EFD1E65
:10087000CE010196B7010E9446068E010F5E1F4F02
:10088000CE010596B8010E9446068985823040F067
:100890008989823028F0C701B8010E94BE0601C0D4
:1008A00081E06896E6E00C941C16ACE0B0E0EBE565
:1008B000F4E00C94041669837A838B839C83CE01C5
:1008C0000196BE016B5F7F4F0E9446068D8182308C
:1008D00061F1823050F1843021F48E81882351F10E
:1008E0002EC02F81388537FD20C06E812F31310514
:1008F0001CF06623F9F023C08EE190E0821B930B7D
:1009000029853A854B855C8504C056954795379572
:1009100027958A95D2F76623B1F05095409530958A
:1009200021953F4F4F4F5F4F0EC020E030E040E039
:1009300050E009C02FEF3FEF4FEF5FE704C020E02A
:1009400030E040E050E8B901CA012C96E2E00C9496
:100950002016A8E0B0E0EFEAF4E00C94FC157B016F
:100960008C01611571058105910519F482E0898377
:1009700060C083E089838EE1C82ED12CDC82CB82DB
:10098000ED82FE820F831887C801B7010E942205FD
:10099000FC013197F7FF3BC0222733272E1B3F0B6B
:1009A00057016801022E04C0D694C794B794A79447
:1009B0000A94D2F740E050E060E070E081E090E01F
:1009C000A0E0B0E004C0880F991FAA1FBB1F2A95A2
:1009D000D2F70197A109B1098E219F21A023B1234C
:1009E0000097A105B10521F041E050E060E070E022
:1009F0004A295B296C297D294D835E836F83788723
:100A00008EE190E08E1B9F0B9C838B8312C03097EE
:100A100081F00E2E04C0EE0CFF1C001F111F0A9463
:100A2000D2F7ED82FE820F831887CE1ADF0ADC82AE
:100A3000CB821A82CE0101960E9471052896EAE0C7
:100A40000C941816EF92FF920F931F937B018C0169
:100A500080E0E81680E0F80681E0080780E01807EB
:100A600088F48FEFE816F1040105110531F028F044
:100A700088E090E0A0E0B0E017C080E090E0A0E067
:100A8000B0E012C080E0E81680E0F80680E00807D9
:100A900081E0180728F088E190E0A0E0B0E004C011
:100AA00080E190E0A0E0B0E020E230E040E050E003
:100AB000281B390B4A0B5B0B04C016950795F7945E
:100AC000E7948A95D2F7F701EA57FE4F8081281BF9
:100AD000310941095109C9011F910F91FF90EF9010
:100AE0000895DF92EF92FF920F931F93FC01E48031
:100AF000F58006811781D1808081823048F480E0C2
:100B000090E0A0E1B0E0E82AF92A0A2B1B2BA5C04F
:100B1000843009F49FC0823021F4EE24FF24870141
:100B200005C0E114F1040105110519F4E0E0F0E05D
:100B300096C0628173819FEF623879070CF05BC0C9
:100B400022E83FEF261B370B2A3131052CF020E03D
:100B500030E040E050E02AC0B801A701022E04C0F6
:100B600076956795579547950A94D2F781E090E07E
:100B7000A0E0B0E004C0880F991FAA1FBB1F2A95F0
:100B8000D2F70197A109B1098E219F21A023B1239A
:100B90000097A105B10521F081E090E0A0E0B0E070
:100BA0009A01AB01282B392B4A2B5B2BDA01C901A7
:100BB0008F779070A070B07080349105A105B10559
:100BC00039F427FF09C0205C3F4F4F4F5F4F04C0EF
:100BD000215C3F4F4F4F5F4FE0E0F0E02030A0E05E
:100BE0003A07A0E04A07A0E45A0710F0E1E0F0E07D
:100BF00079018A0127C06038710564F5FB01E1586D
:100C0000FF4FD801C7018F779070A070B07080340B
:100C10009105A105B10539F4E7FE0DC080E490E02F
:100C2000A0E0B0E004C08FE390E0A0E0B0E0E80E08
:100C3000F91E0A1F1B1F17FF05C016950795F7948D
:100C4000E794319687E016950795F794E7948A958F
:100C5000D1F705C0EE24FF248701EFEFF0E06E2FFF
:100C6000679566276795902F9F77D794DD24D79453
:100C70008E2F8695492F462B582F5D29B701CA0123
:100C80001F910F91FF90EF90DF900895FC01DB0121
:100C9000408151812281622F6F7770E0221F2227CD
:100CA000221F9381892F880F822B282F30E0991FD4
:100CB0009927991F11969C93119721153105A9F534
:100CC000411551056105710511F482E037C082E8D4
:100CD0009FEF13969C938E9312979A01AB0167E056
:100CE000220F331F441F551F6A95D1F783E08C9361
:100CF0000DC0220F331F441F551F12968D919C91DA
:100D00001397019713969C938E931297203080E04F
:100D1000380780E0480780E4580758F314962D936D
:100D20003D934D935C93179708952F3F310579F4C8
:100D3000411551056105710519F484E08C930895FE
:100D400064FF03C081E08C9312C01C9210C02F5727
:100D5000304013963C932E93129783E08C9387E058
:100D6000440F551F661F771F8A95D1F7706414963C
:100D70004D935D936D937C93179708951F93DC01BA
:100D8000FB019C91923008F447C08081823008F4C6
:100D900043C0943051F411961C91843099F58181AF
:100DA000682F70E0611B71093FC0843021F09230E0
:100DB00031F48230B9F18181882389F12DC01196F7
:100DC0001C9111978230F1F081811817D9F4129695
:100DD0002D913C911397828193818217930794F010
:100DE00028173907BCF014968D919D910D90BC91F8
:100DF000A02D2481358146815781281739074A075C
:100E00005B0718F4112341F00AC082179307A40767
:100E1000B50740F4112319F061E070E005C06FEFF1
:100E20007FEF02C060E070E0CB011F910895DF9377
:100E3000CF93CDB7DEB7A3E5B0E0E3E5F0E0808186
:100E400080648C93A3E5B0E0E3E5F0E08081886006
:100E50008C93A3E5B0E0E3E5F0E080818F7E8C9396
:100E6000A3E5B0E0E3E5F0E0808180628C93A3E548
:100E7000B0E0E3E5F0E08081887F8C93A3E5B0E00B
:100E8000E3E5F0E0808182608C93ECE5F0E080E4C3
:100E90008083CF91DF910895DF93CF9300D000D06E
:100EA000CDB7DEB78A837C836B8319828B819C816B
:100EB0000097B9F08A81882339F48B819C819093C3
:100EC0006704809366040FC08A81813039F48B8176
:100ED0009C81909369048093680405C081E08983B4
:100EE00002C083E0898389810F900F900F900F904B
:100EF000CF91DF910895DF93CF93CDB7DEB7AFE405
:100F0000B0E0EFE4F0E080818F7B8C93AFE4B0E061
:100F1000EFE4F0E080818F778C93AFE4B0E0EFE412
:100F2000F0E080818E7F8C93AFE4B0E0EFE4F0E0FE
:100F300080818D7F8C93AEE4B0E0EEE4F0E08081C0
:100F4000877F8C93AEE4B0E0EEE4F0E080818F7EAA
:100F50008C93AEE4B0E0EEE4F0E080818C93AEE4FC
:100F6000B0E0EEE4F0E0808182608C93AEE4B0E02B
:100F7000EEE4F0E080818B7F8C93CF91DF91089538
:100F8000DF93CF9300D0CDB7DEB79A838983ECE4AB
:100F9000F0E089819A81918380830F900F90CF91A7
:100FA000DF910895DF93CF93CDB7DEB7ECE4F0E0A7
:100FB00080819181CF91DF910895DF93CF9300D00D
:100FC000CDB7DEB79A838983EAE4F0E089819A811C
:100FD000918380830F900F90CF91DF9108951F929E
:100FE0000F920FB60F9211242F933F934F935F935D
:100FF0006F937F938F939F93AF93BF93EF93FF93E1
:10100000DF93CF93CDB7DEB7E0916804F091690428
:101010000995CF91DF91FF91EF91BF91AF919F9192
:101020008F917F916F915F914F913F912F910F9091
:101030000FBE0F901F9018951F920F920FB60F9230
:1010400011242F933F934F935F936F937F938F93CD
:101050009F93AF93BF93EF93FF93DF93CF93CDB75E
:10106000DEB7E0916604F09167040995CF91DF91B6
:10107000FF91EF91BF91AF919F918F917F916F9170
:101080005F914F913F912F910F900FBE0F901F9046
:101090001895DF93CF93CDB7DEB7AFE5B0E0EFE5BE
:1010A000F0E0808180688C93CF91DF910895DF9389
:1010B000CF93CDB7DEB7AFE5B0E0EFE5F0E08081EC
:1010C0008F778C93CF91DF910895DF93CF93CDB736
:1010D000DEB72A970FB6F894DEBF0FBECDBF898367
:1010E0006A83ABE5B0E0EBE5F0E08081482F8981D1
:1010F000282F30E081E090E002C0880F991F2A95E8
:10110000E2F7842B8C938981282F30E03A87298756
:1011100089859A858630910569F029853A85273039
:10112000310509F462C089859A858530910509F4F5
:10113000B7C0D5C08A81282F30E038872F838F81B0
:1011400098858130910521F12F8138852230310534
:101150002CF48F819885009761F0C1C02F8138856C
:101160002230310521F18F8198858330910571F10D
:10117000B6C0A5E5B0E0E5E5F0E080818E7F8C9318
:10118000A5E5B0E0E5E5F0E080818D7F8C93A7C018
:10119000A5E5B0E0E5E5F0E080818E7F8C93A5E5E4
:1011A000B0E0E5E5F0E0808182608C9398C0A5E531
:1011B000B0E0E5E5F0E0808181608C93A5E5B0E0EA
:1011C000E5E5F0E0808182608C9389C0A5E5B0E020
:1011D000E5E5F0E0808181608C93A5E5B0E0E5E590
:1011E000F0E080818D7F8C937AC08A81282F30E057
:1011F0003E832D838D819E818130910521F12D814A
:101200003E81223031052CF48D819E81009761F062
:1012100066C02D813E812230310521F18D819E8174
:101220008330910571F15BC0A5E5B0E0E5E5F0E044
:1012300080818B7F8C93A5E5B0E0E5E5F0E08081CF
:10124000877F8C934CC0A5E5B0E0E5E5F0E08081B8
:101250008B7F8C93A5E5B0E0E5E5F0E080818860C8
:101260008C933DC0A5E5B0E0E5E5F0E080818460C9
:101270008C93A5E5B0E0E5E5F0E0808188608C9393
:101280002EC0A5E5B0E0E5E5F0E0808184608C93B8
:10129000A5E5B0E0E5E5F0E08081877F8C931FC095
:1012A0008A81282F30E03C832B838B819C81813085
:1012B000910531F02B813C812230310549F00FC07E
:1012C000A4E5B0E0E4E5F0E080818F7B8C9307C07B
:1012D000A4E5B0E0E4E5F0E0808180648C932A9698
:1012E0000FB6F894DEBF0FBECDBFCF91DF9108954A
:1012F000DF93CF930F92CDB7DEB78983ABE5B0E034
:10130000EBE5F0E08081482F8981282F30E081E0F3
:1013100090E0022E02C0880F991F0A94E2F7809590
:1013200084238C930F90CF91DF910895DF93CF9317
:1013300000D0CDB7DEB79A83898389819A81909353
:101340006B0480936A040F900F90CF91DF91089502
:10135000DF93CF9300D0CDB7DEB79A83898389819D
:101360009A8190936D0480936C040F900F90CF91AD
:10137000DF910895DF93CF9300D0CDB7DEB79A8386
:10138000898389819A8190936F0480936E040F9072
:101390000F90CF91DF9108951F920F920FB60F9289
:1013A00011242F933F934F935F936F937F938F936A
:1013B0009F93AF93BF93EF93FF93DF93CF93CDB7FB
:1013C000DEB7E0916A04F0916B040995CF91DF914B
:1013D000FF91EF91BF91AF919F918F917F916F910D
:1013E0005F914F913F912F910F900FBE0F901F90E3
:1013F00018951F920F920FB60F9211242F933F93BF
:101400004F935F936F937F938F939F93AF93BF930C
:10141000EF93FF93DF93CF93CDB7DEB7E0916C04EA
:10142000F0916D040995CF91DF91FF91EF91BF91FC
:10143000AF919F918F917F916F915F914F913F916C
:101440002F910F900FBE0F901F9018951F920F9223
:101450000FB60F9211242F933F934F935F936F9387
:101460007F938F939F93AF93BF93EF93FF93DF93FC
:10147000CF93CDB7DEB7E0916E04F0916F0409957C
:10148000CF91DF91FF91EF91BF91AF919F918F919C
:101490007F916F915F914F913F912F910F900FBE70
:1014A0000F901F901895DF93CF930F92CDB7DEB7B3
:1014B00081E0898389810F90CF91DF910895DF9337
:1014C000CF9300D000D000D0CDB7DEB78A836B8336
:1014D0004C8381E089838A81843008F0D0C08B817D
:1014E000883008F0CCC08C81823008F0C8C08A8176
:1014F000282F30E03E832D836D817E816130710520
:1015000009F441C08D819E818230910534F42D8192
:101510003E812115310571F0B0C06D817E81623050
:10152000710509F459C08D819E818330910509F4BC
:101530007CC0A3C0AAE3B0E0EAE3F0E08081482FDA
:101540008B81282F30E081E090E002C0880F991F46
:101550002A95E2F7809584238C93AAE3B0E0EAE32E
:10156000F0E08081482F8C81282F30E08B81882FFC
:1015700090E0B90102C0660F771F8A95E2F7CB01B0
:10158000842B8C937AC0A7E3B0E0E7E3F0E080819E
:10159000482F8B81282F30E081E090E002C0880F37
:1015A000991F2A95E2F7809584238C93A7E3B0E0F6
:1015B000E7E3F0E08081482F8C81282F30E08B8199
:1015C000882F90E0B90102C0660F771F8A95E2F775
:1015D000CB01842B8C9351C0A4E3B0E0E4E3F0E0B2
:1015E0008081482F8B81282F30E081E090E002C07D
:1015F000880F991F2A95E2F7809584238C93A4E3A2
:10160000B0E0E4E3F0E08081482F8C81282F30E0C7
:101610008B81882F90E0B90102C0660F771F8A95F1
:10162000E2F7CB01842B8C9328C0A1E3B0E0E1E387
:10163000F0E08081482F8B81282F30E081E090E01E
:1016400002C0880F991F2A95E2F7809584238C9316
:10165000A1E3B0E0E1E3F0E08081482F8C81282F06
:1016600030E08B81882F90E0B90102C0660F771FB0
:101670008A95E2F7CB01842B8C93198202C082E019
:101680008983898126960FB6F894DEBF0FBECDBF41
:10169000CF91DF910895DF93CF93CDB7DEB7299730
:1016A0000FB6F894DEBF0FBECDBF8A836B834C8329
:1016B00081E089838A81843008F0DFC08B818830A3
:1016C00008F0DBC08C81823008F0D7C08A81282FD7
:1016D00030E039872887888599858130910509F41C
:1016E00044C0E885F985E230F10534F42885398570
:1016F0002115310571F0BFC088859985823091052B
:1017000009F462C0E885F985E330F10509F488C081
:10171000B2C08C818130A1F4ABE3B0E0EBE3F0E048
:101720008081482F8B81282F30E081E090E0022ECD
:1017300002C0880F991F0A94E2F7842B8C939BC0F8
:10174000ABE3B0E0EBE3F0E08081482F8B81282F02
:1017500030E081E090E0022E02C0880F991F0A94C9
:10176000E2F7809584238C9386C028E330E03F83A2
:101770002E838C81813091F4E8E3F0E08081482F62
:101780008B81282F30E081E090E0022E02C0880F8C
:10179000991F0A94E2F7842B8D8311C0E8E3F0E0EF
:1017A0008081482F8B81282F30E081E090E002C0BB
:1017B000880F991F2A95E2F7809584238D832D81C8
:1017C000EE81FF81208357C08C818130A1F4A5E395
:1017D000B0E0E5E3F0E08081482F8B81282F30E0F6
:1017E00081E090E0022E02C0880F991F0A94E2F770
:1017F000842B8C9340C0A5E3B0E0E5E3F0E080816A
:10180000482F8B81282F30E081E090E0022E02C02B
:10181000880F991F0A94E2F7809584238C932BC03C
:101820008C818130A1F4A2E3B0E0E2E3F0E08081BA
:10183000482F8B81282F30E081E090E0022E02C0FB
:10184000880F991F0A94E2F7842B8C9314C0A2E3AB
:10185000B0E0E2E3F0E08081482F8B81282F30E078
:1018600081E090E0022E02C0880F991F0A94E2F7EF
:10187000809584238C93198202C082E089838981B8
:1018800029960FB6F894DEBF0FBECDBFCF91DF9182
:101890000895DF93CF9300D000D00F92CDB7DEB77D
:1018A0008A836B8381E089838A81843008F074C0E5
:1018B0008B81883008F070C08A81282F30E03D830A
:1018C0002C838C819D818130910549F12C813D8152
:1018D000223031052CF48C819D81009761F05AC033
:1018E0002C813D812230310571F18C819D818330C5
:1018F0009105E9F14FC0ABE3B0E0EBE3F0E08081AC
:10190000482F8B81282F30E081E090E0022E02C02A
:10191000880F991F0A94E2F784278C933BC0A8E3B1
:10192000B0E0E8E3F0E08081482F8B81282F30E0A1
:1019300081E090E0022E02C0880F991F0A94E2F71E
:1019400084278C9327C0A5E3B0E0E5E3F0E0808135
:10195000482F8B81282F30E081E090E0022E02C0DA
:10196000880F991F0A94E2F784278C9313C0A2E38F
:10197000B0E0E2E3F0E08081482F8B81282F30E057
:1019800081E090E0022E02C0880F991F0A94E2F7CE
:1019900084278C93198202C082E0898389810F9009
:1019A0000F900F900F900F90CF91DF910895DF93DC
:1019B000CF93CDB7DEB727970FB6F894DEBF0FBE33
:1019C000CDBF8A836B835D834C8381E089838C8167
:1019D0009D81009709F47DC08A81843008F076C02B
:1019E0008B81883008F072C08A81282F30E03F83D5
:1019F0002E834E815F814130510559F18E819F8147
:101A00008230910534F42E813F812115310569F032
:101A10005BC04E815F814230510579F18E819F819B
:101A20008330910509F43DC04FC0E9E3F0E08081C7
:101A3000282F30E08B81882F90E0A90102C05595B6
:101A400047958A95E2F7CA018170EC81FD81808318
:101A50003BC0E6E3F0E08081282F30E08B81882FC7
:101A600090E0A90102C0559547958A95E2F7CA0111
:101A70008170EC81FD81808327C0E3E3F0E0808109
:101A8000282F30E08B81882F90E0A90102C0559566
:101A900047958A95E2F7CA018170EC81FD818083C8
:101AA00013C0E0E3F0E08081282F30E08B81882FA5
:101AB00090E0A90102C0559547958A95E2F7CA01C1
:101AC0008170EC81FD818083198205C082E0898369
:101AD00002C083E08983898127960FB6F894DEBF20
:101AE0000FBECDBFCF91DF910895DF93CF93CDB7D8
:101AF000DEB7E1970FB6F894DEBF0FBECDBF89AB5E
:101B0000EBE3F0E089A98083A5E3B0E0E5E3F0E052
:101B100080818E7F8C93A5E3B0E0E5E3F0E08081E7
:101B20008D7F8C93A5E3B0E0E5E3F0E080818460F5
:101B30008C9380E090E0A0EAB0E48DA79EA7AFA7C9
:101B4000B8AB6DA57EA58FA598A92BEA3AEA4AEA1B
:101B500050E40E941F02DC01CB0189A79AA7ABA722
:101B6000BCA769A57AA58BA59CA520E030E040E83C
:101B70005FE30E94250488231CF481E088A791C0BC
:101B800069A57AA58BA59CA520E030E04FE753E43A
:101B90000E94C50318160CF07BC06DA57EA58FA50D
:101BA00098A920E030E04AE754E40E941903DC01E0
:101BB000CB018CA39DA3AEA3BFA36CA17DA18EA1DD
:101BC0009FA120E030E04AE755E40E941F02DC01BB
:101BD000CB0188A399A3AAA3BBA368A179A18AA1D9
:101BE0009BA120E030E040E85FE30E9425048823C9
:101BF0002CF481E090E09F8F8E8F3FC068A179A187
:101C00008AA19BA120E03FEF4FE757E40E94C50364
:101C100018164CF56CA17DA18EA19FA120E030E0AB
:101C200040E251E40E941F02DC01CB01BC01CD0166
:101C30000E944900DC01CB019F8F8E8F0FC080E98D
:101C400091E09D8F8C8F8C8D9D8D0197F1F79D8FED
:101C50008C8F8E8D9F8D01979F8F8E8F8E8D9F8DF8
:101C6000009769F724C068A179A18AA19BA10E946D
:101C70004900DC01CB019F8F8E8F8E8D9F8D9B8FB6
:101C80008A8F8A8D9B8D0197F1F79B8F8A8F0FC06A
:101C900069A57AA58BA59CA50E944900DC01CB0112
:101CA00088A788A5898F898D8A95F1F7898FA5E303
:101CB000B0E0E5E3F0E080818B7F8C9380E090E002
:101CC000A0EAB0E48D8B9E8BAF8BB88F6D897E8937
:101CD0008F89988D2BEA3AEA4AEA50E40E941F0263
:101CE000DC01CB01898B9A8BAB8BBC8B69897A89A0
:101CF0008B899C8920E030E040E85FE30E94250466
:101D000088231CF481E0888B91C069897A898B894A
:101D10009C8920E030E04FE753E40E94C503181689
:101D20000CF07BC06D897E898F89988D20E030E032
:101D30004AE754E40E941903DC01CB018C879D879C
:101D4000AE87BF876C857D858E859F8520E030E0DE
:101D50004AE755E40E941F02DC01CB01888799877E
:101D6000AA87BB87688579858A859B8520E030E0D6
:101D700040E85FE30E94250488232CF481E090E092
:101D80009F838E833FC0688579858A859B8520E007
:101D90003FEF4FE757E40E94C50318164CF56C85DA
:101DA0007D858E859F8520E030E040E251E40E94F1
:101DB0001F02DC01CB01BC01CD010E944900DC0106
:101DC000CB019F838E830FC080E991E09D838C833C
:101DD0008C819D810197F1F79D838C838E819F81FA
:101DE00001979F838E838E819F81009769F724C01E
:101DF000688579858A859B850E944900DC01CB0135
:101E00009F838E838E819F819B838A838A819B811E
:101E10000197F1F79B838A830FC069897A898B893F
:101E20009C890E944900DC01CB01888B88898983C9
:101E300089818A95F1F78983E1960FB6F894DEBF20
:101E40000FBECDBFCF91DF910895DF93CF93CDB774
:101E5000DEB7E1970FB6F894DEBF0FBECDBF89ABFA
:101E6000EBE3F0E089A98083A5E3B0E0E5E3F0E0EF
:101E7000808181608C93A5E3B0E0E5E3F0E08081B0
:101E80008D7F8C93A5E3B0E0E5E3F0E08081846092
:101E90008C9380E090E0A0EAB0E48DA79EA7AFA766
:101EA000B8AB6DA57EA58FA598A92BEA3AEA4AEAB8
:101EB00050E40E941F02DC01CB0189A79AA7ABA7BF
:101EC000BCA769A57AA58BA59CA520E030E040E8D9
:101ED0005FE30E94250488231CF481E088A791C059
:101EE00069A57AA58BA59CA520E030E04FE753E4D7
:101EF0000E94C50318160CF07BC06DA57EA58FA5AA
:101F000098A920E030E04AE754E40E941903DC017C
:101F1000CB018CA39DA3AEA3BFA36CA17DA18EA179
:101F20009FA120E030E04AE755E40E941F02DC0157
:101F3000CB0188A399A3AAA3BBA368A179A18AA175
:101F40009BA120E030E040E85FE30E942504882365
:101F50002CF481E090E09F8F8E8F3FC068A179A123
:101F60008AA19BA120E03FEF4FE757E40E94C50301
:101F700018164CF56CA17DA18EA19FA120E030E048
:101F800040E251E40E941F02DC01CB01BC01CD0103
:101F90000E944900DC01CB019F8F8E8F0FC080E92A
:101FA00091E09D8F8C8F8C8D9D8D0197F1F79D8F8A
:101FB0008C8F8E8D9F8D01979F8F8E8F8E8D9F8D95
:101FC000009769F724C068A179A18AA19BA10E940A
:101FD0004900DC01CB019F8F8E8F8E8D9F8D9B8F53
:101FE0008A8F8A8D9B8D0197F1F79B8F8A8F0FC007
:101FF00069A57AA58BA59CA50E944900DC01CB01AF
:1020000088A788A5898F898D8A95F1F7898FA5E39F
:10201000B0E0E5E3F0E080818B7F8C9380E090E09E
:10202000A0EAB0E48D8B9E8BAF8BB88F6D897E89D3
:102030008F89988D2BEA3AEA4AEA50E40E941F02FF
:10204000DC01CB01898B9A8BAB8BBC8B69897A893C
:102050008B899C8920E030E040E85FE30E94250402
:1020600088231CF481E0888B91C069897A898B89E7
:102070009C8920E030E04FE753E40E94C503181626
:102080000CF07BC06D897E898F89988D20E030E0CF
:102090004AE754E40E941903DC01CB018C879D8739
:1020A000AE87BF876C857D858E859F8520E030E07B
:1020B0004AE755E40E941F02DC01CB01888799871B
:1020C000AA87BB87688579858A859B8520E030E073
:1020D00040E85FE30E94250488232CF481E090E02F
:1020E0009F838E833FC0688579858A859B8520E0A4
:1020F0003FEF4FE757E40E94C50318164CF56C8577
:102100007D858E859F8520E030E040E251E40E948D
:102110001F02DC01CB01BC01CD010E944900DC01A2
:10212000CB019F838E830FC080E991E09D838C83D8
:102130008C819D810197F1F79D838C838E819F8196
:1021400001979F838E838E819F81009769F724C0BA
:10215000688579858A859B850E944900DC01CB01D1
:102160009F838E838E819F819B838A838A819B81BB
:102170000197F1F79B838A830FC069897A898B89DC
:102180009C890E944900DC01CB01888B8889898366
:1021900089818A95F1F78983E1960FB6F894DEBFBD
:1021A0000FBECDBFCF91DF910895DF93CF93CDB711
:1021B000DEB72E970FB6F894DEBF0FBECDBFEAE3B1
:1021C000F0E08FEF8083E4E3F0E08FEF8083A5E31E
:1021D000B0E0E5E3F0E0808188638C9380E090E0FC
:1021E000A0EAB1E48B879C87AD87BE876B857C8531
:1021F0008D859E8520E030E04AE755E40E941F026D
:10220000DC01CB018F839887A987BA876F81788596
:1022100089859A8520E030E040E85FE30E9425044C
:1022200088232CF481E090E09E838D833FC06F81F2
:10223000788589859A8520E03FEF4FE757E40E9433
:10224000C50318164CF56B857C858D859E8520E031
:1022500030E040E251E40E941F02DC01CB01BC01EE
:10226000CD010E944900DC01CB019E838D830FC00C
:1022700080E991E09C838B838B819C810197F1F7AE
:102280009C838B838D819E8101979E838D838D811D
:102290009E81009769F714C06F81788589859A853A
:1022A0000E944900DC01CB019E838D838D819E813C
:1022B0009A83898389819A810197F1F79A83898327
:1022C0008EE30E94750D80E40E94750D88EB0E94DC
:1022D000750D80EC0E94750D8FE30E94750D2E9692
:1022E0000FB6F894DEBF0FBECDBFCF91DF9108953A
:1022F0000F931F93DF93CF93CDB7DEB72F970FB612
:10230000F894DEBF0FBECDBF8D877F876E878D852A
:10231000882F90E088549F4F98878F831E821D825C
:1023200080E090E0A0E0BFE389839A83AB83BC8325
:10233000A5E3B0E0E5E3F0E0808188608C93A5E35D
:10234000B0E0E5E3F0E080818F7E8C938F810E9486
:10235000750D1C861B8616C28D85882F90E096957C
:10236000982F882797958795909581959F4F8550B1
:102370009C4F9C018D819E812817390708F40DC25E
:102380002E853F858B859C85F901E80FF91F80819B
:10239000803209F480C081E090E09A87898775C017
:1023A0002D813E8189859A858901080F191F6981D0
:1023B0007A818B819C8120E030E040E05FE30E94E5
:1023C000F201DC01CB01BC01CD010E945504DC010E
:1023D000CB019695982F8827979587950817190709
:1023E00009F04EC089859A858530910509F453C05E
:1023F00080E40E94750D2D813E8189859A85820F2A
:10240000931F9E838D83A5E3B0E0E5E3F0E0908128
:1024100088E089278C93A5E3B0E0E5E3F0E09081C4
:1024200080E189278C938F819885CC01A0E0B0E072
:10243000BC01CD010E94A904DC01CB01BC01CD018E
:1024400029813A814B815C810E94F201DC01CB0140
:10245000BC01CD010E944900DC01CB010E94750D39
:1024600069817A818B819C8120E030E040E05FE3EC
:102470000E94F201DC01CB0189839A83AB83BC8388
:1024800089859A8501969A87898789859A85863074
:10249000910508F485CF8D85882F90E09695982F2B
:1024A000882797958795909581959F4F85509C4F4C
:1024B0009C018D819E812817390708F46EC12E85F5
:1024C0003F858B859C85F901E80FF91F8081282FB6
:1024D00030E0C901880F991F820F931F880F991F41
:1024E000880F991F880F991F820F931F8C5093405C
:1024F0008A579D4F009759F02E853F858B859C8587
:10250000F901E80FF91F8081803209F076C01A8640
:1025100019866CC02E853F858B859C85F901E80F57
:10252000F91F8081882F90E09C012052304049851E
:102530005A85C901880F991F880F991F820F931F11
:10254000840F951FFC01EA57FD4F80810E94250FE3
:102550008D819E8101968F7390700097E9F5A5E3B8
:10256000B0E0E5E3F0E0908188E089278C93A5E373
:10257000B0E0E5E3F0E0908180E189278C938F81E2
:102580009885CC01A0E0B0E0BC01CD010E94A90477
:10259000DC01CB01BC01CD0129813A814B815C81F9
:1025A0000E94F201DC01CB01BC01CD010E94490077
:1025B000DC01CB010E94750D69817A818B819C8140
:1025C00020E030E040E05FE30E94F201DC01CB015B
:1025D00089839A83AB83BC838D819E8101969E8380
:1025E0008D8389859A8501969A87898789859A85B9
:1025F0008530910508F48ECFC0C01A8619866CC04C
:102600002E853F858B859C85F901E80FF91F808118
:10261000882F90E09C012052304049855A85C9019D
:10262000880F991F880F991F820F931F840F951F82
:10263000FC01EA57FD4F80810E94250F8D819E810C
:1026400001968F7390700097E9F5A5E3B0E0E5E39C
:10265000F0E0908188E089278C93A5E3B0E0E5E382
:10266000F0E0908180E189278C938F819885CC015F
:10267000A0E0B0E0BC01CD010E94A904DC01CB01C7
:10268000BC01CD0129813A814B815C810E94F2011C
:10269000DC01CB01BC01CD010E944900DC01CB0172
:1026A0000E94750D69817A818B819C8120E030E0E8
:1026B00040E05FE30E94F201DC01CB0189839A8351
:1026C000AB83BC838D819E8101969E838D8389859A
:1026D0009A8501969A87898789859A85853091059B
:1026E00008F48ECF80E00E94250F8D819E81019697
:1026F0009E838D838D819E818F7390700097E9F505
:10270000A5E3B0E0E5E3F0E0908188E089278C93D1
:10271000A5E3B0E0E5E3F0E0908180E189278C93C8
:102720008F819885CC01A0E0B0E0BC01CD010E9472
:10273000A904DC01CB01BC01CD0129813A814B8187
:102740005C810E94F201DC01CB01BC01CD010E9441
:102750004900DC01CB010E94750D69817A818B8172
:102760009C8120E030E040E05FE30E94F201DC0168
:10277000CB0189839A83AB83BC838B859C8501962F
:102780009C878B872E853F858B859C85F901E80F7B
:10279000F91F8081882309F0DFCD80E40E94750D48
:1027A0002F960FB6F894DEBF0FBECDBFCF91DF914D
:1027B0001F910F910895DF93CF9300D000D000D0E8
:1027C000CDB7DEB79A8389837C836B835E834D8329
:1027D0002D813E818DB79EB708970FB6F8949EBFA6
:1027E0000FBE8DBFEDB7FEB731968B819C81918373
:1027F00080833383228380E690E09583848389817C
:102800009A81978386830E942B168DB79EB7089670
:102810000FB6F8949EBF0FBE8DBF26960FB6F894E4
:10282000DEBF0FBECDBFCF91DF910895DF93CF9371
:10283000CDB7DEB72E970FB6F894DEBF0FBECDBF73
:102840009C878B877E876D878D859E859E012F5FF8
:102850003F4FB9014AE050E00E94DB138B859E0197
:102860002F5F3F4FB9010E9478112E960FB6F89452
:10287000DEBF0FBECDBFCF91DF910895DF93CF9321
:10288000CDB7DEB781E063E041E00E945F0A83E0FC
:1028900062E040E00E945F0A86E062E00E94650814
:1028A0008EEC94E10E9496090E94D5100E941707B1
:1028B0000E947B070E94490823E630E080E0B901CE
:1028C0000E9478118091700490917104CC01A0E075
:1028D000B0E0BC01CD010E94A904DC01CB01BC0128
:1028E000CD0120E030E040E05FE30E941F02DC0108
:1028F000CB01BC01CD010E945504DC01CB019C0140
:1029000081E090E0B9010E94161429E730E082E0EE
:10291000B9010E9478118091740490917504CC01E2
:10292000A0E0B0E0BC01CD010E94A904DC01CB0114
:10293000BC01CD0120E030E040E05FE30E941F02D7
:10294000DC01CB01BC01CD010E945504DC01CB01AF
:102950009C0183E090E0B9010E94161480917404F8
:1029600090917504CC01A0E0B0E0BC01CD010E94C3
:10297000A904DC01CB01BC01CD0120E030E040E046
:102980005FE30E941F02DC01CB01BC01CD010E946C
:102990004900DC01CB010E941015E0CFDF93CF93FB
:1029A000CDB7DEB78091760490917704019690932D
:1029B0007704809376048091760490917704813037
:1029C000910521F480E090E00E94C0078091760498
:1029D000909177048230910551F40E94D207909330
:1029E00071048093700486E061E00E946508809124
:1029F0007604909177048330910579F40E94D20790
:102A00002091700430917104821B930B9093750494
:102A10008093740486E00E947809CF91DF91089535
:102A2000DF93CF930F92CDB7DEB78983898184314D
:102A300098F421E930E084E0B9010E94781123E99B
:102A400030E085E0B9010E94781126E930E086E0A7
:102A5000B9010E947811C4C089818431B0F08981A4
:102A60008E3198F422EA30E084E0B9010E947811B6
:102A700025EA30E085E0B9010E94781129EA30E0CA
:102A800086E0B9010E947811ABC089818E31B0F027
:102A90008981883298F425EB30E084E0B9010E9406
:102AA000781129EB30E085E0B9010E9478112EEB16
:102AB00030E086E0B9010E94781192C089818832A5
:102AC000B0F08981823398F42AEC30E084E0B901D7
:102AD0000E9478112FEC30E085E0B9010E94781156
:102AE00025ED30E086E0B9010E94781179C0898136
:102AF0008233B0F089818C3398F421EE30E084E0A9
:102B0000B9010E94781127EE30E085E0B9010E94FA
:102B100078112EEE30E086E0B9010E94781160C095
:102B200089818C33B0F08981863498F42AEF30E0C3
:102B300084E0B9010E94781121E031E085E0B9011B
:102B40000E94781129E031E086E0B9010E947811F5
:102B500047C089818634B0F08981803598F425E1B9
:102B600031E084E0B9010E9478112DE131E085E087
:102B7000B9010E94781126E231E086E0B9010E9495
:102B800078112EC089818035B0F089818A3598F41A
:102B900022E331E084E0B9010E9478112BE331E0B7
:102BA00085E0B9010E94781125E431E086E0B901A1
:102BB0000E94781115C089818A3590F021E531E0B5
:102BC00084E0B9010E94781120E631E085E0B90186
:102BD0000E9478112FE631E086E0B9010E94781159
:102BE0000F90CF91DF9108952F923F924F925F9275
:102BF0006F927F928F929F92AF92BF92CF92DF920D
:102C0000EF92FF920F931F93CF93DF93CDB7DEB771
:102C1000CA1BDB0B0FB6F894DEBF0FBECDBF099405
:102C20002A88398848885F846E847D848C849B845C
:102C3000AA84B984C884DF80EE80FD800C811B816A
:102C4000AA81B981CE0FD11D0FB6F894DEBF0FBE99
:102C5000CDBFED010895AEE0B0E0E1E3F6E10C9404
:102C600002160D891E898F89988D97FF02C080E01A
:102C700090E801979E838D831A83098386E08C8375
:102C80009E01255E3F4FCE010196698D7A8DA90187
:102C90000E945C164D815E8157FD0AC02F813885E8
:102CA000421753070CF49A01020F131FF801108208
:102CB0002E96E4E00C941E16ABE0B0E0E2E6F6E1FE
:102CC0000C94F4153C012B015A01FC011782168269
:102CD000838181FD03C06FEF7FEFC6C19AE0892E2B
:102CE0001E010894211C311CF3012381F20123FDF4
:102CF000859123FF81912F01882309F4B2C1853288
:102D000039F423FD859123FF81912F01853229F428
:102D100090E0B3010E944F18E7CF982FFF24EE24D4
:102D20009924FFE1FF15D0F09B3269F09C3228F422
:102D3000903259F0933291F40EC09D3249F09033A5
:102D400069F441E024C052E0F52A84E0F82A28C062
:102D500098E0F92A25C0E0E1FE2A22C0F7FC29C04C
:102D6000892F80538A3070F4F6FE05C0989C902C11
:102D70001124980E15C0E89CE02C1124E80EF0E216
:102D8000FF2A0EC09E3229F4F6FC6BC140E4F42AFF
:102D900007C09C3619F450E8F52A02C0983649F469
:102DA000F20123FD959123FF91912F01992309F0C1
:102DB000B8CF892F8554833018F08052833038F48F
:102DC00044E050E0A40EB51E5FE359830FC0933674
:102DD00031F0933779F0933509F056C020C0F501F2
:102DE0008081898342E050E0A40EB51E610101E0BC
:102DF00010E012C0F501C080D180F6FC03C06FEF77
:102E00007FEF02C0692D70E042E050E0A40EB51ED5
:102E1000C6010E9444188C015FE7F52214C0F50139
:102E2000C080D180F6FC03C06FEF7FEF02C0692D38
:102E300070E042E050E0A40EB51EC6010E943918B1
:102E40008C0150E8F52AF3FE07C01AC080E290E03A
:102E5000B3010E944F18EA948E2D90E008171907CD
:102E6000A8F30EC0F601F7FC8591F7FE81916F0182
:102E700090E0B3010E944F18E110EA940150104015
:102E80000115110579F7EAC0943611F0993669F504
:102E9000F7FE08C0F501208131814281538184E031
:102EA00090E00AC0F501808191819C01442737FDA3
:102EB0004095542F82E090E0A80EB91E9FE6F922BB
:102EC00057FF09C050954095309521953F4F4F4F82
:102ED0005F4FE0E8FE2ACA01B901A1012AE030E013
:102EE0000E947B18D82ED21840C0953729F41F2D88
:102EF0001F7E2AE030E01DC01F2D197F9F3661F034
:102F0000903720F4983509F0ACC00FC0903739F0F5
:102F1000983709F0A6C004C028E030E00AC010616C
:102F200014FD146020E130E004C014FD166020E1BF
:102F300032E017FF08C0F5016081718182819381C1
:102F400044E050E008C0F50180819181BC0180E03F
:102F500090E042E050E0A40EB51EA1010E947B1853
:102F6000D82ED2188FE7F82EF122F6FE0BC05EEFB6
:102F7000F522D91438F4F4FE07C0F2FC05C08FEE38
:102F8000F82202C01D2D01C0192DF4FE0DC0FE0156
:102F9000ED0DF11D8081803319F499EEF92208C0FE
:102FA0001F5FF2FE05C003C08F2D867809F01F5FFA
:102FB0000F2DF3FC14C0F0FE0FC01E1510F09D2C59
:102FC0000BC09D2C9E0C911A1E2D06C080E290E035
:102FD000B3010E944F181F5F1E15C0F304C01E15D9
:102FE00010F4E11A01C0EE2404FF0FC080E390E06A
:102FF000B3010E944F1802FF1DC001FD03C088E706
:1030000090E00EC088E590E00BC0802F867891F0AC
:1030100001FF02C08BE201C080E2F7FC8DE290E08C
:10302000B3010E944F1806C080E390E0B3010E94F4
:103030004F189A94D914C0F3DA94F101ED0DF11DF3
:10304000808190E0B3010E944F18DD20A9F706C0EF
:1030500080E290E0B3010E944F18EA94EE20C1F79D
:1030600043CEF30166817781CB012B96E2E10C948C
:103070001016FC010590615070400110D8F7809542
:1030800090958E0F9F1F0895FC0161507040019034
:103090000110D8F7809590958E0F9F1F08950F937C
:1030A0001F93CF93DF938C01EB018B8181FF1BC0BA
:1030B00082FF0DC02E813F818C819D8128173907A9
:1030C00064F4E881F9810193F983E88306C0E88517
:1030D000F985802F0995892B31F48E819F81019686
:1030E0009F838E8302C00FEF1FEFC801DF91CF9146
:1030F0001F910F910895FA01AA27283051F120312C
:1031000081F1E8946F936E7F6E5F7F4F8F4F9F4F7B
:10311000AF4FB1E03ED0B4E03CD0670F781F891FBD
:103120009A1FA11D680F791F8A1F911DA11D6A0F8B
:10313000711D811D911DA11D20D009F468943F913E
:103140002AE0269F11243019305D3193DEF6CF013D
:103150000895462F4770405D4193B3E00FD0C9F703
:10316000F6CF462F4F70405D4A3318F0495D31FD70
:103170004052419302D0A9F7EACFB4E0A6959795C3
:10318000879577956795BA95C9F700976105710599
:1031900008959B01AC010A2E0694579547953795E3
:1031A0002795BA95C9F7620F731F841F951FA01D3D
:0631B0000895F894FFCF22
:1031B60025640020706572696F645469636B3D20F5
:1031C60020202020202020200020447574792043D0
:1031D60079636C65202520202020202020202020B7
:1031E600002D00207C0020202D2D2D2D2D2D2D2D68
:1031F6002D002D2D0020207C002020202D2D2D2D72
:103206002D2D2D2D002D2D2D002020207C00202061
:1032160020202D2D2D2D2D2D2D002D2D2D2D002059
:103226002020207C0020202020202D2D2D2D2D2D0E
:10323600002D2D2D2D2D0020202020207C0020204B
:10324600202020202D2D2D2D2D002D2D2D2D2D2D09
:10325600002020202020207C00202020202020204C
:103266002D2D2D2D002D2D2D2D2D2D2D0020202009
:10327600202020207C0020202020202020202D2DF2
:103286002D002D2D2D2D2D2D2D2D00202020202003
:103296002020207C002020202020202020202D2DD2
:1032A600002D2D2D2D2D2D2D2D2D202020202000E3
:1032B600202020202020202020207C2020200020CC
:1032C600202020202020202020202D20200000004B
:1032D60000000000000000010202030303030404CF
:1032E600040404040404050505050505050505058E
:1032F600050505050505060606060606060606066E
:103306000606060606060606060606060606060657
:10331600060606060606070707070707070707073D
:103326000707070707070707070707070707070727
:103336000707070707070707070707070707070717
:103346000707070707070707070707070707070707
:1033560007070707070708080808080808080808ED
:1033660008080808080808080808080808080808D7
:1033760008080808080808080808080808080808C7
:1033860008080808080808080808080808080808B7
:1033960008080808080808080808080808080808A7
:1033A6000808080808080808080808080808080897
:1033B6000808080808080808080808080808080887
:1033C6000808080808080808080808080808080877
:1033D600080808080808000000000000005F000058
:1033E6000007000700147F147F14242A7F2A122363
:1033F6001308646236495522500005030000001C7C
:103406002241000041221C0014083E081408083E10
:10341600080800503000000808080808006060002E
:103426000020100804023E5149453E00427F4000FC
:1034360042615149462141454B311814127F1027EC
:10344600454545393C4A4949300171090503364924
:10345600494936064949291E0036360000005636C7
:1034660000000814224100141414141400412214FC
:10347600080201510906324979413E7E1111117E39
:103486007F494949363E414141227F4141221C7FC5
:10349600494949417F090909013E4149497A7F085D
:1034A60008087F00417F41002040413F017F08140A
:1034B60022417F404040407F020C027F7F0408107B
:1034C6007F3E4141413E7F090909063E4151215E49
:1034D6007F09192946464949493101017F01013FC2
:1034E6004040403F1F2040201F3F4038403F63146C
:1034F60008146307087008076151494543007F4176
:10350600410002040810200041417F00040201022C
:1035160004404040404000010204002054545478C6
:103526007F484444383844444420384444487F382B
:1035360054545418087E0901020C5252523E7F0818
:1035460004047800447D40002040443D007F10285C
:10355600440000417F40007C041804787C08040481
:103566007838444444387C14141408081414187C1D
:103576007C080404084854545420043F4440203C2A
:103586004040207C1C2040201C3C4030403C4428CD
:103596001028440C5050503C4464544C44000836A7
:1035A600410000007F0000004136080010080810A6
:0635B6000878464146784A
:00000001FF
